{"abi":[{"type":"function","name":"_operators","inputs":[{"name":"","type":"uint8","internalType":"uint8"},{"name":"","type":"uint256","internalType":"uint256"}],"outputs":[{"name":"operator","type":"address","internalType":"address"},{"name":"operatorId","type":"bytes32","internalType":"bytes32"},{"name":"stake","type":"uint96","internalType":"uint96"}],"stateMutability":"view"},{"type":"function","name":"_registryCoordinator","inputs":[],"outputs":[{"name":"","type":"address","internalType":"address"}],"stateMutability":"view"},{"type":"function","name":"getOperatorState","inputs":[{"name":"","type":"address","internalType":"contract IRegistryCoordinator"},{"name":"quorumNumbers","type":"bytes","internalType":"bytes"},{"name":"","type":"uint32","internalType":"uint32"}],"outputs":[{"name":"","type":"tuple[][]","internalType":"struct OperatorStateRetriever.Operator[][]","components":[{"name":"operator","type":"address","internalType":"address"},{"name":"operatorId","type":"bytes32","internalType":"bytes32"},{"name":"stake","type":"uint96","internalType":"uint96"}]}],"stateMutability":"view"},{"type":"function","name":"setOperators","inputs":[{"name":"quorumNumber","type":"uint8","internalType":"uint8"},{"name":"operators","type":"tuple[]","internalType":"struct OperatorStateRetriever.Operator[]","components":[{"name":"operator","type":"address","internalType":"address"},{"name":"operatorId","type":"bytes32","internalType":"bytes32"},{"name":"stake","type":"uint96","internalType":"uint96"}]}],"outputs":[],"stateMutability":"nonpayable"},{"type":"function","name":"setRegistryCoordinator","inputs":[{"name":"value","type":"address","internalType":"contract IRegistryCoordinator"}],"outputs":[],"stateMutability":"nonpayable"}],"bytecode":{"object":"0x608060405234801561000f575f80fd5b506107448061001d5f395ff3fe608060405234801561000f575f80fd5b5060043610610055575f3560e01c80633563b0d1146100595780633fc1cd661461008257806359b7b23214610097578063c11efc91146100c1578063c6936b7814610102575b5f80fd5b61006c61006736600461041b565b610131565b60405161007991906104cc565b60405180910390f35b610095610090366004610589565b610262565b005b5f546100a9906001600160a01b031681565b6040516001600160a01b039091168152602001610079565b6100d46100cf366004610686565b61032d565b604080516001600160a01b03909416845260208401929092526001600160601b031690820152606001610079565b6100956101103660046106ae565b5f80546001600160a01b0319166001600160a01b0392909216919091179055565b60605f835167ffffffffffffffff81111561014e5761014e610395565b60405190808252806020026020018201604052801561018157816020015b606081526020019060019003908161016c5790505b5090505f5b84518160ff1610156102595760ff81165f90815260016020908152604080832080548251818502810185019093528083529192909190849084015b8282101561021e575f848152602090819020604080516060810182526003860290920180546001600160a01b03168352600180820154848601526002909101546001600160601b03169183019190915290835290920191016101c1565b50505050905080838360ff168151811061023a5761023a6106d0565b6020026020010181905250508080610251906106e4565b915050610186565b50949350505050565b5f5b81518160ff1610156103285760015f8460ff1660ff1681526020019081526020015f20828260ff168151811061029c5761029c6106d0565b6020908102919091018101518254600180820185555f94855293839020825160039092020180546001600160a01b0319166001600160a01b039092169190911781559181015192820192909255604090910151600290910180546bffffffffffffffffffffffff19166001600160601b0390921691909117905580610320816106e4565b915050610264565b505050565b6001602052815f5260405f208181548110610346575f80fd5b5f9182526020909120600390910201805460018201546002909201546001600160a01b0390911693509091506001600160601b031683565b6001600160a01b0381168114610392575f80fd5b50565b634e487b7160e01b5f52604160045260245ffd5b6040516060810167ffffffffffffffff811182821017156103cc576103cc610395565b60405290565b604051601f8201601f1916810167ffffffffffffffff811182821017156103fb576103fb610395565b604052919050565b803563ffffffff81168114610416575f80fd5b919050565b5f805f6060848603121561042d575f80fd5b83356104388161037e565b925060208481013567ffffffffffffffff80821115610455575f80fd5b818701915087601f830112610468575f80fd5b81358181111561047a5761047a610395565b61048c601f8201601f191685016103d2565b915080825288848285010111156104a1575f80fd5b80848401858401375f848284010152508094505050506104c360408501610403565b90509250925092565b5f60208083018184528085518083526040925060408601915060408160051b8701018488015f5b8381101561056b57888303603f190185528151805180855290880190888501905f5b8181101561055657835180516001600160a01b031684528b8101518c8501528a01516001600160601b03168a840152928a0192606090920191600101610515565b505095880195935050908601906001016104f3565b509098975050505050505050565b803560ff81168114610416575f80fd5b5f80604080848603121561059b575f80fd5b6105a484610579565b925060208085013567ffffffffffffffff808211156105c1575f80fd5b818701915087601f8301126105d4575f80fd5b8135818111156105e6576105e6610395565b6105f4848260051b016103d2565b8181528481019250606091820284018501918a831115610612575f80fd5b938501935b828510156106755780858c03121561062d575f80fd5b6106356103a9565b85356106408161037e565b81528587013587820152878601356001600160601b0381168114610662575f80fd5b8189015284529384019392850192610617565b508096505050505050509250929050565b5f8060408385031215610697575f80fd5b6106a083610579565b946020939093013593505050565b5f602082840312156106be575f80fd5b81356106c98161037e565b9392505050565b634e487b7160e01b5f52603260045260245ffd5b5f60ff821660ff810361070557634e487b7160e01b5f52601160045260245ffd5b6001019291505056fea2646970667358221220b2290e2b1fc3871555069b78bd547264dbafbbd08e46654d381d4b4420479bd864736f6c63430008170033","linkReferences":{}},"methodIdentifiers":{"_operators(uint8,uint256)":"c11efc91","_registryCoordinator()":"59b7b232","getOperatorState(address,bytes,uint32)":"3563b0d1","setOperators(uint8,(address,bytes32,uint96)[])":"3fc1cd66","setRegistryCoordinator(address)":"c6936b78"},"id":0}