{"abi":[{"type":"function","name":"quorumCount","inputs":[],"outputs":[{"name":"","type":"uint8","internalType":"uint8"}],"stateMutability":"view"},{"type":"function","name":"setQuorumCount","inputs":[{"name":"value","type":"uint8","internalType":"uint8"}],"outputs":[],"stateMutability":"nonpayable"}],"bytecode":{"object":"0x608060405234801561000f575f80fd5b5060d28061001c5f395ff3fe6080604052348015600e575f80fd5b50600436106030575f3560e01c80639aa1653d146034578063c4097d5e146055575b5f80fd5b5f54603f9060ff1681565b60405160ff909116815260200160405180910390f35b607560603660046077565b5f805460ff191660ff92909216919091179055565b005b5f602082840312156086575f80fd5b813560ff811681146095575f80fd5b939250505056fea2646970667358221220838753ce2f2b280c7ec4ee2c55ed2c16ff8e0daf6d93fcd414c9b855a6097a9464736f6c63430008170033","linkReferences":{}},"methodIdentifiers":{"quorumCount()":"9aa1653d","setQuorumCount(uint8)":"c4097d5e"},"id":1}