{"abi":[{"type":"function","name":"_operators","inputs":[{"name":"","type":"uint256","internalType":"uint256"}],"outputs":[{"name":"","type":"address","internalType":"address"}],"stateMutability":"view"},{"type":"function","name":"activeOperatorsAt","inputs":[{"name":"","type":"uint48","internalType":"uint48"}],"outputs":[{"name":"","type":"address[]","internalType":"address[]"}],"stateMutability":"view"},{"type":"function","name":"setActiveOperators","inputs":[{"name":"operators","type":"address[]","internalType":"address[]"}],"outputs":[],"stateMutability":"nonpayable"}],"bytecode":{"object":"0x6080604052348015600e575f5ffd5b506103a08061001c5f395ff3fe608060405234801561000f575f5ffd5b506004361061003f575f3560e01c8063b9b710e914610043578063dd9432c314610073578063e68c8ade14610088575b5f5ffd5b6100566100513660046101a4565b6100a8565b6040516001600160a01b0390911681526020015b60405180910390f35b6100866100813660046101ea565b6100cf565b005b61009b6100963660046102b5565b610143565b60405161006a91906102e1565b5f81815481106100b6575f80fd5b5f918252602090912001546001600160a01b0316905081565b5f5b81518160ff16101561013f575f828260ff16815181106100f3576100f361032c565b60209081029190910181015182546001810184555f938452919092200180546001600160a01b0319166001600160a01b039092169190911790558061013781610340565b9150506100d1565b5050565b60605f80548060200260200160405190810160405280929190818152602001828054801561019857602002820191905f5260205f20905b81546001600160a01b0316815260019091019060200180831161017a575b50505050509050919050565b5f602082840312156101b4575f5ffd5b5035919050565b634e487b7160e01b5f52604160045260245ffd5b80356001600160a01b03811681146101e5575f5ffd5b919050565b5f602082840312156101fa575f5ffd5b813567ffffffffffffffff811115610210575f5ffd5b8201601f81018413610220575f5ffd5b803567ffffffffffffffff81111561023a5761023a6101bb565b8060051b604051601f19603f830116810181811067ffffffffffffffff82111715610267576102676101bb565b604052918252602081840181019290810187841115610284575f5ffd5b6020850194505b838510156102aa5761029c856101cf565b81526020948501940161028b565b509695505050505050565b5f602082840312156102c5575f5ffd5b813565ffffffffffff811681146102da575f5ffd5b9392505050565b602080825282518282018190525f918401906040840190835b818110156103215783516001600160a01b03168352602093840193909201916001016102fa565b509095945050505050565b634e487b7160e01b5f52603260045260245ffd5b5f60ff821660ff810361036157634e487b7160e01b5f52601160045260245ffd5b6001019291505056fea26469706673582212202c498c1c7b6be35bf0effabe24ba7e5a36236b9abea49b9583be91e1706ff37b64736f6c634300081c0033","linkReferences":{}},"methodIdentifiers":{"_operators(uint256)":"b9b710e9","activeOperatorsAt(uint48)":"e68c8ade","setActiveOperators(address[])":"dd9432c3"},"id":0}